:020000040800F2
:10000000FF7F00208D630008DD630008DD630008CA
:10001000DD630008DD630008DD6300080000000008
:10002000000000000000000000000000DD63000888
:10003000DD63000800000000DD630008091400080B
:10004000DD630008DD630008DD630008DD63000890
:10005000DD630008DD630008DD630008DD63000880
:10006000DD630008DD630008DD630008DD63000870
:10007000DD630008DD630008DD630008DD63000860
:10008000DD630008DD630008DD630008DD63000850
:1000900029200008DD630008DD630008DD63000837
:1000A000DD630008DD630008DD630008DD63000830
:1000B000DD630008DD630008DD630008DD63000820
:1000C000DD630008DD630008DD630008DD63000810
:1000D000DD630008DD630008DD630008DD63000800
:1000E000DD630008DD630008DD630008DD630008F0
:1000F000DD630008DD630008DD630008DD630008E0
:10010000000000000000000000000000DD630008A7
:10011000DD630008DD630008DD630008DD630008BF
:10012000DD630008DD630008DD630008DD630008AF
:10013000DD630008DD63000800000000000000002F
:10014000DD630008DD630008DD63000800000000D7
:10015000000000000000000000000000000000009F
:100160000000000000000000DD630008DD630008FF
:10017000DD63000800000000000000000000000037
:0801800000000000DD6300082F
:1001880008B540F69C20074BC2F200001B1A062B4C
:1001980000D808BD40F20003C0F20003002BF8D0DD
:1001A8009847F6E79F0A002008B540F69C2040F6DD
:1001B8009C23C2F20003C2F200001B1A9B1003EB3F
:1001C800D373591000D108BD40F20002C0F20002FA
:1001D800002AF8D09047F6E710B540F69C24C2F202
:1001E8000004237873B9FFF7CBFF40F20003C0F295
:1001F80000032BB14BF2B410C0F60000AFF300803F
:100208000123237010BD00BF08B540F20003C0F2FF
:1002180000034BB14BF2B41040F6A021C0F6000029
:10022800C2F20001AFF3008040F69C20C2F2000049
:1002380003682BB140F20003C0F2000303B19847F2
:10024800BDE80840B0E700BF00B502B4FFB40B48F2
:1002580005F09AFCFFBC0A49086802BC00BD00BF53
:1002680000B503B40649086800F10100086003BC42
:1002780000BD00BF00B500BD00B500BD0000000016
:1002880000000020844641EA000313F003036DD107
:10029800403A41D351F8043B40F8043B51F8043B41
:1002A80040F8043B51F8043B40F8043B51F8043B48
:1002B80040F8043B51F8043B40F8043B51F8043B38
:1002C80040F8043B51F8043B40F8043B51F8043B28
:1002D80040F8043B51F8043B40F8043B51F8043B18
:1002E80040F8043B51F8043B40F8043B51F8043B08
:1002F80040F8043B51F8043B40F8043B51F8043BF8
:1003080040F8043B51F8043B40F8043B51F8043BE7
:1003180040F8043B403ABDD2303211D351F8043B87
:1003280040F8043B51F8043B40F8043B51F8043BC7
:1003380040F8043B51F8043B40F8043B103AEDD236
:100348000C3205D351F8043B40F8043B043AF9D287
:10035800043208D0D2071CBF11F8013B00F8013B5A
:1003680001D30B8803806046704700BF082A13D367
:100378008B078DD010F003038AD0C3F10403D21A7F
:10038800DB071CBF11F8013B00F8013B80D331F8B3
:10039800023B20F8023B7BE7043AD9D3013A11F833
:1003A800013B00F8013BF9D20B7803704B7843709E
:1003B8008B7883706046704781F0004102E000BF8F
:1003C80083F0004330B54FEA41044FEA430594EA0D
:1003D800050F08BF90EA020F1FBF54EA000C55EA48
:1003E800020C7FEA645C7FEA655C00F0E2804FEA19
:1003F8005454D4EB5555B8BF6D420CDD2C4480EAFB
:10040800020281EA030382EA000083EA010180EA2A
:10041800020281EA0303362D88BF30BD11F0004F78
:100428004FEA01314FF4801C4CEA113102D04042AE
:1004380061EB410113F0004F4FEA03334CEA1333E9
:1004480002D0524263EB430394EA050F00F0A78001
:10045800A4F10104D5F1200E0DDB02FA0EFC22FAFC
:1004680005F2801841F1000103FA0EF2801843FAF0
:1004780005F359410EE0A5F120050EF1200E012AE1
:1004880003FA0EFC28BF4CF0020C43FA05F3C0181F
:1004980051EBE37101F0004507D54FF0000EDCF198
:1004A800000C7EEB00006EEB0101B1F5801F1BD341
:1004B800B1F5001F0CD349085FEA30004FEA3C0C45
:1004C80004F101044FEA445212F5800F80F09A803B
:1004D800BCF1004F08BF5FEA500C50F1000041EB3F
:1004E800045141EA050130BD5FEA4C0C404141EB43
:1004F800010111F4801FA4F10104E9D191F0000F6A
:1005080004BF01460020B1FA81F308BF2033A3F1EC
:100518000B03B3F120020CDA0C3208DD02F1140CE3
:10052800C2F10C0201FA0CF021FA02F10CE002F11E
:100538001402D8BFC2F1200C01FA02F120FA0CFC17
:10054800DCBF41EA0C019040E41AA2BF01EB045160
:10055800294330BD6FEA04041F3C1CDA0C340EDC5E
:1005680004F11404C4F1200220FA04F001FA02F3A1
:1005780040EA030021FA04F345EA030130BDC4F15F
:100588000C04C4F1200220FA02F001FA04F340EA54
:100598000300294630BD21FA04F0294630BD94F005
:1005A800000F83F4801306BF81F480110134013DEC
:1005B8004EE77FEA645C18BF7FEA655C29D094EA5D
:1005C800050F08BF90EA020F05D054EA000C04BFDB
:1005D8001946104630BD91EA030F1EBF00210020C6
:1005E80030BD5FEA545C05D14000494128BF41F065
:1005F800004130BD14F580043CBF01F5801130BDC9
:1006080001F0004545F0FE4141F470014FF0000053
:1006180030BD7FEA645C1ABF194610467FEA655C04
:100628001CBF0B46024650EA013406BF52EA0335A6
:1006380091EA030F41F4002130BD00BF90F0000F94
:1006480004BF0021704730B54FF4806404F13204D0
:100658004FF000054FF0000150E700BF90F0000F89
:1006680004BF0021704730B54FF4806404F13204B0
:1006780010F0004548BF40424FF000013EE700BF80
:1006880042004FEAE2014FEA31014FEA02701FBF10
:1006980012F07F4393F07F4F81F06051704792F0E2
:1006A800000F14BF93F07F4F704730B54FF460745C
:1006B80001F0004521F0004120E700BF50EA0102A7
:1006C80008BF704730B54FF000050AE050EA010254
:1006D80008BF704730B511F0004502D5404261EBC4
:1006E80041014FF4806404F132045FEA915C3FF405
:1006F800DCAE4FF003025FEADC0C18BF03325FEA9E
:10070800DC0C18BF033202EBDC02C2F1200300FA52
:1007180003FC20FA02F001FA03FE40EA0E0021FA77
:1007280002F11444C1E600BF70B54FF0FF0C4CF461
:10073800E06C1CEA11541DBF1CEA135594EA0C0F17
:1007480095EA0C0F00F0DEF82C4481EA030621EA52
:100758004C5123EA4C5350EA013518BF52EA03358D
:1007680041F4801143F4801338D0A0FB02CE4FF03F
:100778000005E1FB02E506F00042E0FB03E54FF06F
:100788000006E1FB03569CF0000F18BF4EF0010E67
:10079800A4F1FF04B6F5007F64F5407404D25FEA63
:1007A8004E0E6D4146EB060642EAC62141EA555116
:1007B8004FEAC52040EA5E504FEACE2EB4F1FD0C58
:1007C80088BFBCF5E06F1ED8BEF1004F08BF5FEAD6
:1007D800500E50F1000041EB045170BD06F0004688
:1007E80046EA010140EA020081EA0301B4EB5C0435
:1007F800C2BFD4EB0C0541EA045170BD41F480112D
:100808004FF0000E013C00F3AB8014F1360FDEBF51
:10081800002001F0004170BDC4F10004203C35DA2D
:100828000C341BDC04F11404C4F1200500FA05F3B0
:1008380020FA04F001FA05F240EA020001F0004251
:1008480021F0004110EBD37021FA04F642EB0601C7
:100858005EEA430E08BF20EAD37070BDC4F10C04F1
:10086800C4F1200500FA04F320FA05F001FA04F2B5
:1008780040EA020001F0004110EBD37041F10001A1
:100888005EEA430E08BF20EAD37070BDC4F12005AC
:1008980000FA05F24EEA020E20FA04F301FA05F214
:1008A80043EA020321FA04F001F0004121FA04F2BC
:1008B80020EA020000EBD3705EEA430E08BF20EA8C
:1008C800D37070BD94F0000F0FD101F000464000C6
:1008D80041EB010111F4801F08BF013CF7D041EA48
:1008E800060195F0000F18BF704703F0004652004C
:1008F80043EB030313F4801F08BF013DF7D043EA1D
:100908000603704794EA0C0F0CEA135518BF95EAD2
:100918000C0F0CD050EA410618BF52EA4306D1D159
:1009280081EA030101F000414FF0000070BD50EA78
:10093800410606BF1046194652EA430619D094EA02
:100948000C0F02D150EA013613D195EA0C0F05D1EC
:1009580052EA03361CBF104619460AD181EA030140
:1009680001F0004141F0FE4141F470014FF00000F8
:1009780070BD41F0FE4141F4780170BD70B54FF093
:10098800FF0C4CF4E06C1CEA11541DBF1CEA135513
:1009980094EA0C0F95EA0C0F00F0A7F8A4EB0504F5
:1009A80081EA030E52EA03354FEA013100F08880EC
:1009B8004FEA03334FF0805545EA131343EA1263B5
:1009C8004FEA022245EA111545EA10654FEA00266A
:1009D8000EF000419D4208BF964244F1FD0404F523
:1009E800407402D25B084FEA3202B61A65EB03057F
:1009F8005B084FEA32024FF480104FF4002CB6EB3C
:100A0800020E75EB030E22BFB61A754640EA0C00BB
:100A18005B084FEA3202B6EB020E75EB030E22BFFB
:100A2800B61A754640EA5C005B084FEA3202B6EB3C
:100A3800020E75EB030E22BFB61A754640EA9C00FB
:100A48005B084FEA3202B6EB020E75EB030E22BFCB
:100A5800B61A754640EADC0055EA060E18D04FEA89
:100A6800051545EA16754FEA06164FEAC30343EA29
:100A780052734FEAC2025FEA1C1CC0D111F4801FF6
:100A88000BD141EA00014FF000004FF0004CB6E7EF
:100A980011F4801F04BF01430020B4F1FD0C88BF8E
:100AA800BCF5E06F3FF6AFAEB5EB030C04BFB6EB99
:100AB800020C5FEA500C50F1000041EB045170BD8C
:100AC8000EF0004E4EEA113114EB5C04C2BFD4EBB9
:100AD8000C0541EA045170BD41F480114FF0000E3D
:100AE800013C90E645EA060E8DE60CEA135594EAB9
:100AF8000C0F08BF95EA0C0F3FF43BAF94EA0C0FBC
:100B08000AD150EA01347FF434AF95EA0C0F7FF430
:100B180025AF104619462CE795EA0C0F06D152EA84
:100B280003353FF4FDAE1046194622E750EA410668
:100B380018BF52EA43067FF4C5AE50EA41047FF479
:100B48000DAF52EA43057FF4EBAE12E74FF0FF3CDE
:100B580006E000BF4FF0010C02E000BF4FF0010CAF
:100B68004DF804CD4FEA410C7FEA6C5C4FEA430C28
:100B780018BF7FEA6C5C1BD001B050EA410C0CBF77
:100B880052EA430C91EA030F02BF90EA020F0020D9
:100B9800704710F1000F91EA030F58BF994208BF40
:100BA80090422CBFD8176FEAE37040F001007047FD
:100BB8004FEA410C7FEA6C5C02D150EA013C07D154
:100BC8004FEA430C7FEA6C5CD6D152EA033CD3D09F
:100BD8005DF8040B704700BF8446104662468C4699
:100BE8001946634600E000BF01B5FFF7B7FF0028CC
:100BF80048BF10F1000F01BD4DF808EDFFF7F4FFF5
:100C08000CBF012000205DF808FB00BF4DF808ED7F
:100C1800FFF7EAFF34BF012000205DF808FB00BFA2
:100C28004DF808EDFFF7E0FF94BF012000205DF8C4
:100C380008FB00BF4DF808EDFFF7CEFF94BF012079
:100C480000205DF808FB00BF4DF808EDFFF7C4FF72
:100C580034BF012000205DF808FB00BF4FEA4102C5
:100C680012F5001215D211D56FF47873B3EB6252F6
:100C780012D94FEAC12343F0004343EA505311F01D
:100C8800004F23FA02F018BF404270474FF00000AF
:100C9800704750EA013005D111F0004008BF6FF0ED
:100CA800004070474FF00000704700BF4BB942B991
:100CB800002908BF002802D04FF0FF31084600F095
:100CC8003BB882B0EC462DE9005000F01DF8DDF885
:100CD80004E002B00CBC70472DE9F041069C1546B3
:100CE80006460F46984600F029F805FB01F300FB7D
:100CF8000838A5FB00234344B21A67EB0303C4E991
:100D08000023BDE8F08100BF2DE9F041069C15469F
:100D180006460F46984600F067F900FB08F8A0FB66
:100D2800052305FB01884344B21A67EB0303C4E9B2
:100D38000023BDE8F08100BF704700BF00292DE9FE
:100D4800F00FA8BF0026C0F2A980002BC0F2A18036
:100D5800894690469C46144605460F46002B47D1C7
:100D68008A425BD9B2FA82F353B1C3F1200201FA85
:100D780003F720FA02F208FA03F4174300FA03F51E
:100D8800210CB7FBF1F22B0C01FB127CA0B243EA59
:100D98000C4700FB02F3BB4209D93F1902F1FF3CA3
:100DA80004D2BB4284BF023A3F1900D86246FF1AF8
:100DB800B7FBF1F3ADB201FB137145EA014100FB4A
:100DC80003F0884208D9091903F1FF3703D2884292
:100DD80088BF023B00D83B4643EA0243002218463C
:100DE800114616B1404261EB4101BDE8F00F704772
:100DF8008B4284BF00221346F1D8BCFA8CF100293B
:100E080040F09080CC4528BF80458CBF002201224D
:100E18009CBF01230A46E2D91346E0E712B9012331
:100E2800B3FBF2F4B4FA84F3002B3DD13F1B200C42
:100E38001FFA84FC0122B7FBF0F12B0C00FB1177A1
:100E480043EA07470CFB01F3BB420AD93F1901F1FA
:100E5800FF3880F0C180BB4284BF02393F1940F29D
:100E6800BB80FF1AB7FBF0F3ADB200FB137045EA85
:100E780000400CFB03FC844508D9001903F1FF3737
:100E880003D2844588BF023B00D83B4643EA01436E
:100E9800A5E7F643524263EB430359E7404261EB4F
:100EA80041014FF0FF3650E79C40C3F1200227FA7A
:100EB80002F1200C25FA02F29F401743B1FBF0F231
:100EC8004FEA174800FB12111FFA84FC48EA014157
:100ED8000CFB02F8884505FA03F508D9091902F14F
:100EE800FF337FD2884584BF023A09197AD9C8EB03
:100EF8000101B1FBF0F300FB1311BFB247EA014750
:100F08000CFB03F1B94209D93F1903F1FF3804D2A8
:100F1800B94284BF023B3F1900D843467F1A43EACF
:100F2800024288E7C1F1200328FA03F20CFA01FC17
:100F380042EA0C0C29FA03F44FEA1C4A20FA03F39C
:100F480009FA01F943EA0900B4FBFAF70AFB174466
:100F5800030C1FFA8CF943EA044409FB07FBA34579
:100F680008FA01F209D914EB0C0407F1FF3337D260
:100F7800A34584BF023F644432D9CBEB0404B4FBDD
:100F8800FAF30AFB134480B240EA044009FB03F475
:100F9800844209D910EB0C0003F1FF381ED28442B9
:100FA80084BF023B604419D943EA0747001BA7FBEB
:100FB800022398420DD314BF0023012305FA01F13F
:100FC80091422CBF002203F001023B46002A3FF465
:100FD80006AF7B1E002202E7414642E74346E3E7AD
:100FE8001F46CAE71A4682E72DE9F003144605466C
:100FF8000E46002B41D18A4254D9B2FA82F34BB142
:10100800C3F12006994020FA06F602FA03F40E43CB
:1010180000FA03F5220CB6FBF2F02B0C02FB106170
:10102800A7B243EA014607FB00F3B34209D93619D0
:1010380000F1FF3104D2B34284BF0238361900D818
:101048000846F61AB6FBF2F3ADB202FB136245EAA4
:10105800024207FB03F7974209D9121903F1FF313E
:1010680080F0EA80974288BF023B40F2E58043EA7D
:1010780000400021BDE8F00370478B4284BF002187
:101088000846F7D8B3FA83F4002C49D18B4228BF1D
:1010980082428CBF002101219CBF01202146E9D951
:1010A8000846E7E712B90124B4FBF2F4B4FA84F76E
:1010B800002F40F082800B1B260CA7B20121B3FB46
:1010C800F6F02A0C06FB103342EA034307FB00F252
:1010D8009A420AD91B1900F1FF3C80F0AF809A426E
:1010E80084BF02381B1940F2A9809B1AB3FBF6F2A1
:1010F800ADB206FB123345EA034507FB02F7AF42E0
:1011080009D92C1902F1FF3380F09A80A74288BFD1
:10111800023A40F2958042EA0040BDE8F003704789
:10112800C4F1200522FA05F6A34033434FEA1348D9
:1011380021FA05F6A14020FA05F5B6FBF8FC0D43A7
:1011480008FB1C66290C1FFA83F941EA064609FBCD
:101158000CF7B74202FA04F204D9F6180CF1FF3181
:1011680076D38C46F61BB6FBF8F708FB1766ADB2CC
:1011780045EA064509FB07F6AE4204D9ED1807F122
:10118800FF315FD30F4647EA0C47AD1BA7FB02238D
:101198009D420DD300FA04F114BF002501259142A8
:1011A8002CBF002105F00101384600293FF462AF49
:1011B800781E0021BDE8F0037047BC40C7F120034A
:1011C80021FA03FC260CB94020FA03F30B43BCFBBD
:1011D800F6F11A0C06FB11CC1FFA84F842EA0C4C03
:1011E80008FB01F2624500FA07F509D91CEB040C6B
:1011F80001F1FF3033D2624584BF0239A4442ED9AD
:10120800C2EB0C0CBCFBF6F29BB206FB12CC43EA19
:101218000C4308FB02F0984209D91B1902F1FF3769
:1012280004D2984284BF023A1B1900D83A461B1AC6
:1012380042EA0141474642E70B4618E7604654E751
:101248001A4668E7AE4284BF023FED189BD899E77B
:10125800B74284BFACF1020CF61883D881E7014687
:10126800CEE700BF07B5F8B9684600F063FC08B1DF
:101278000F4804E001A800F05DFC18B10D4805F026
:1012880099F911E00099CB1E072B03D90A4805F0FC
:1012980041F909E0094A01990093D05C11B104F0C1
:1012A80057FC01E004F062FC03B05DF804FB00BFEA
:1012B800D0B10008E2B100080BB20008A2B30008E0
:1012C80007B558B9684604F0D7FD0648BDF90010BF
:1012D800BDF90220BDF9043005F01CF903B05DF832
:1012E80004FB00BF38B200081FB5F8B901A804F024
:1012F800EFFDDFED107ADDED016A9DED027A9DEDDF
:10130800036A66EEA76A27EE277A66EE277AFDEE6D
:10131800E66ABDEEC77AFDEEE77A074816EE901A40
:1013280017EE102A17EE903A05F0F4F805B05DF8BC
:1013380004FB00BF000080436BB2000808B558B931
:1013480004F06AFC054B0649002818BF19460548F1
:10135800BDE8084005F0DEB808BD00BF9AB2000835
:10136800A2B20008ABB2000808B5032004F0F0FBF5
:10137800FEE7000010B590B0012306930793002301
:1013880008934FF4803302240E9306A84FF4E01319
:101398000D940F9301F06EF810BB0F230193039087
:1013A8004FF480630590214601A80294049301F04C
:1013B80083FB0446A0B901F063FD00F0E9FC0D4B86
:1013C800185D013404F090FB082CF8D10020014688
:1013D80004F0E8FB04F038FD20B1074805F0EAF80E
:1013E800FFF7C2FF04F052FD08B10448F6E700F029
:1013F800F7FAFCE7A2B30008C4B20008E6B2000896
:1014080001F050BDFEE7000070B51A4D0A202C68A7
:1014180005F094F80023092294FBF2F102FB114431
:1014280001343820144A00FB04F10133565816B928
:101438000B2BF0D103E00B2B01D0002C05DA0F4861
:1014480005F0B8F84FF0FF3070BD2B689C420ED005
:1014580000FB0320074B11440C300C311C60A0E842
:10146800F05FC0F800D0B1E8F05FD1F800D00020FC
:1014780070BD00BFB80A0020000F0020AAB3000802
:101488003823084A434310B5D158D41839B100213C
:10149800D150054B61601A68013A1A6010BD4FF0CF
:1014A800FF3010BD000F0020B80A0020064C074A84
:1014B800236838214B43D118D35848689847206887
:1014C800FFF7DEFFFFF7A0BFB80A0020000F0020DB
:1014D8002DE9F041154C164E074688460025204652
:1014E80000212C2204F0CCFF124BA6626362F36049
:1014F80054F80C3CE6616BB938226A430E4CA318C9
:10150800A7500E4AC3F8048002EB85229A60284649
:10151800BDE8F08101350A2D04F1380406F580662E
:10152800DDD14FF0FF30BDE8F08100BF0C0F002087
:1015380020150020B5140008000F002030110020ED
:1015480010B50A240B4805F035F84FF480710122D4
:10155800094801F0E7FDC82001F0B2FC06484FF445
:101568008071002201F0DEFDFFF74EFF013CE9D15A
:1015780010BD00BFCBB300080010004810B50A2406
:101588000B4805F017F84FF400710122094801F0E3
:10159800C9FDC82001F094FC06484FF400710022F0
:1015A80001F0C0FDFFF730FF013CE9D110BD00BFDD
:1015B800D3B300080010004810B50A240B4804F003
:1015C800F9FF4FF480610122094801F0ABFDC82002
:1015D80001F076FC06484FF48061002201F0A2FD7C
:1015E800FFF712FF013CE9D110BD00BFDBB30008D3
:1015F8000010004810B50A240B4804F0DBFF4FF434
:1016080080510122094801F08DFDC82001F058FCE5
:1016180006484FF48051002201F084FDFFF7F4FEE4
:10162800013CE9D110BD00BFE3B300080010004839
:1016380010B50A24064804F0BDFF00F001F94FF484
:10164800FA7001F03DFCFFF7DFFE013CF2D110BD5E
:10165800EBB30008014B1868704700BFB80A0020B8
:1016680010B500230F4C00211A1919513833B3F55E
:101678000C7F5160F6D12C2204F10C0004F000FF1D
:10168800094B0A4A6363DA6022632268A362A3F5FE
:101698007C7312B9064984E80E00064B00221A60D2
:1016A80010BD00BF000F002020150020B514000851
:1016B8000D140008B80A002013B5A8B901A800F055
:1016C80025FA0A4C206023681BB1094804F072FF10
:1016D8000AE00198FFF7D4FE20602368013303D1A4
:1016E8000448019904F016FF02B010BDFC0E00205A
:1016F800F3B3000809B4000808B9FFF785BE7047BE
:1017080010B50446FFF7ACFFACB921460A48FFF70D
:10171800DFFE01210948FFF7DBFE02210848FFF739
:10172800D7FE03210748FFF7D3FE07480421BDE889
:101738001040FFF7CDBE10BD4915000885150008FB
:10174800C1150008FD1500083916000808B538B994
:10175800FFF780FFBDE808400146024804F0DABE02
:1017680008BD00BF1EB40008F0B5054689B00028C2
:1017780054D12B4E2B4C736943F4800373614FF49F
:1017880080620223A060032721462748E76084E897
:101798000C00276101F008FC736943F4003373619E
:1017A8000C21012384E80A004FF090402146A560EF
:1017B8002561E76001F0F8FBB3691C4C1C4843F451
:1017C8008033B361482384E809004FF47A732046D4
:1017D800A56025616561E36003F048F9154D014690
:1017E800287008B1144806E0204603F0D8F80146EE
:1017F800287018B1114804F08DFE0FE060230193A2
:101808004FF4FA730293039008230590069007900B
:1018180001A920460422049303F04AFA09B0F0BD56
:1018280000100240303900200014004844390020DC
:1018380000400140FC0E0020DDB40008FFB40008A1
:1018480008B50B4B4FF4FA729A634FF0904004219D
:10185800012201F067FC4FF090400821002201F0BE
:1018680061FC04480421BDE8084003F091BA00BFB8
:101878000040014044390020012808B50FD0022853
:1018880004D10748BDE8084004F094BE4D20FEF797
:10189800DBFCBDE808400146024804F03BBE08BD39
:1018A8005AB5000893B5000807B540B9684600F076
:1018B80041F901A800F03EF9009B019A1A6003B0B3
:1018C8005DF804FB07B538B901A800F033F90199B0
:1018D80003480A6804F01EFE03B05DF804FB00BF6D
:1018E800B7B500082DE9F041154608B9314822E09E
:1018F80009B931481FE022B1304B01391E6803464F
:1019080009E02F4817E013F8012B5AB13244013986
:101918005278120706D54F1C18460C46F3D10378A7
:101928001BB942E0002CFAD13FE0264904F086FFBB
:10193800064610B92448254935E0254904F0CCFE6F
:101948000446A0B91F4904F079FF064688B90C354A
:1019580055F80C1C59B355F8042C1AB11D4804F05D
:10196800D9FDF4E755F8083C01209847EFE7002730
:1019780008E0022706E03046414604F0ADFE044682
:1019880030B10C35D5F80080B8F1000FF3D108E07C
:101998001FB11148414604F0BDFD6B6838469847B1
:1019A80005E00E48314604F0B5FD4FF0FF342046FF
:1019B800BDE8F08102B6000823B60008FC0100204B
:1019C80033B6000856B600085DB60008E6B600084B
:1019D8008DB6000892B600089EB60008A3B60008A7
:1019E80073B53F4D2B6823B13E4804F093FD0023A7
:1019F8002B600DF1070000F03BFA00286ED19DF82E
:101A08000730082B01D07F2B0DD1374C226852B1FB
:101A1800364804F07FFD364B1A68013A1A6023688D
:101A2800013B23605AE0212B15D1324B1B68002B58
:101A380054D0314C3149204604F072FE21463048DA
:101A480004F068FD204604F0C9FE274B1860284BB7
:101A580004441C6024E02B4A12681A44527812F09D
:101A6800970211D0204A11684F2901D9072008E0B0
:101A78001F4C20680370451C01319DF80700256044
:101A8800116004F05BFD29E00D2B27D1184B1B4892
:101A98001B6819491A7004F043FE164B01221A609C
:101AA8000A20134C04F04AFD0F4A216816680B46B9
:101AB8001046721A1A444F2A4FF0000202D803F84F
:101AC800012BF6E723600C4E0F4B026050211A6879
:101AD8003046FFF707FF012326602B6002B070BD78
:101AE80008000020D8B60008BC0A0020DFB60008AD
:101AF80004000020C00A0020D039002080390020CE
:101B0800E3B60008FC0100200C00002010B50849CD
:101B18000446002004F092FE30B100210A4604F089
:101B28005BFF2060002010BD4FF0FF3010BD00BFEC
:101B380056B6000810B508490446002004F07EFE99
:101B480030B100210A4604F0F1FF2060002010BDEA
:101B58004FF0FF3010BD00BF56B6000810B506495B
:101B68000446002004F06AFE10B12060002010BD79
:101B78004FF0FF3010BD00BF56B600082DE9F04FFA
:101B8800834687B09246894600293BD001AC0025A0
:101B980027464D4505EB0A0105F00F0621D01EB971
:101BA8001A4804F0B7FC3C46194B1BF805101B6893
:101BB80018480B4404F101085B7813F0970F0ABF2B
:101BC8002E232170237004F0A5FC0F2E444606D165
:101BD800002388F800301048394604F09BFC013592
:101BE800D7E7002323706EB11C46C6F110039C4250
:101BF80004D20A4804F08EFC0134F6E70648394658
:101C080004F088FC07B0BDE8F08F00BFECB6000810
:101C1800FC010020F2B60008F8B60008FEB600087D
:101C2800012838B51DD002280E4C0F4D09D10F4898
:101C380004F0C0FC21682A680D48BDE8384004F06B
:101C480069BC2046FFF776FF10B92846FFF772FFF8
:101C5800206829680246FFF791FF23682A68134421
:101C6800236038BDC40A00201000002002B7000815
:101C78009AB8000808B50A4B1A680AB9094A1A60DE
:101C880018686B460144994206D904F0ABFB0C2353
:101C980003604FF0FF3008BD014B196008BD00BF5D
:101CA800C80A00206C4700204FF0FF3070474FF4FF
:101CB8000053536000207047012070470020704790
:101CC8001C4B70B51B68044698471B4B9C42064644
:101CD8002ED11A4BB3F80811B3F80C2192B212FAAC
:101CE80081F101F07F01A3F80811B3F80A1189B254
:101CF8008A1A92B2A3F80A210022A3F80C21B3F899
:101D08000811B3F80A2192B289B21C4682B153185D
:101D18007F2B88BFC1F1800295B2214486312A46C3
:101D2800054803F040FC044803F04BFCA4F80C51B0
:101D3800304670BD443C0020203A0020CC0A0020E8
:101D48002DE9FF41E0B972B60F480021D0F81051D3
:101D5800D0F81441D0F81881D0F81C71D0F820615F
:101D6800142200F5887004F08BFB62B60748CDF8A2
:101D780000800197029600212A46234604F0CAFBF8
:101D880004B0BDE8F08100BFCC0A0020E8B8000824
:101D980010B5174C23680021586802220B4604F03E
:101DA80011FC23680021986802220B4604F00AFC03
:101DB8002368104CD86800210B46022204F002FC6C
:101DC80020460D49002203F009F80C490C4A4B69DA
:101DD80013600C4B20464B6103F015F820460A4966
:101DE80003F0DAFB2046BDE8104003F013B800BF4B
:101DF80028060020203A0020280100205C0000204E
:101E0800443C0020C91C000868010020F0B572B6E7
:101E180000230F4D4FF492764643AC198034A788BF
:101E2800BFB28FB193420FD06788BFB23E4401372B
:101E3800AD5D07F07F07CD546780A588ADB2013D41
:101E4800ADB2A5800133E4E762B61846F0BD00BF25
:101E5800CC0A0020114600201A46FFF7D7BF08B564
:101E68000122FFF7D3FFD0F1010038BF002008BDE1
:101E7800014608B50020FFF7F2FF003018BF012027
:101E880008BD0000F8B5394B4FF492747F2A04FB63
:101E9800003406D9D4F810310133C4F810310120C8
:101EA800F8BDB4F80A5112FA85F57F2D04D9D4F893
:101EB80014510135C4F814514FF4927404FB0035E1
:101EC80005F584756D8812FA85F57F2DF4D872B6FC
:101ED80004FB0034D4F818511544C4F818510A44C6
:101EE80091421DD04FF4927505FB003505F58474B9
:101EF8006688B6B27F2E13D8B5F8067111F801CBF3
:101F0800BFB205F580763D44013707F07F0785F8B5
:101F180086C0F7806588ADB20135ADB26580DFE770
:101F28004FF4927202FB0032B2F80811B2F80A219B
:101F380089B292B254187F2C88BFC1F1800290B93F
:101F48000B4C94F8FC0103280DD1194495B2204696
:101F580086312A4603F027FB204603F032FB10B9EE
:101F6800024BA3F80C5162B60020F8BDCC0A002041
:101F7800203A0020F8B51D461446D718BC4226461C
:101F88000FD033780A2B04F1010404D1002006494C
:101F98000122FFF777FF314601220020FFF772FF89
:101FA800ECE72846F8BD00BF5BB60008F0B51B4C4F
:101FB8004FF4927303FB0043B3F8845012FA85F58B
:101FC8007F2D06D9D3F81C210132C3F81C2101202A
:101FD800F0BDD3F820511544C3F820510A4491426A
:101FE80019D04FF492774743E31911F801CBB3F8AE
:101FF8008060B6B23744013606F07F0604F807C0A1
:10200800A3F8806003F18005B3F884309BB20133F4
:102018009BB2AB80E3E70020F0BD00BFCC0A0020F4
:10202800014801F084BC00BF483C002010B50B46B5
:102038000446B0B1B1B1888889796268102905D0A1
:10204800202905D0082905D1805C10BD805A10BD13
:10205800805810BD1A680448236804F05BFA002011
:1020680010BD10BD084610BD92B9000838B50B4622
:102078000446A8B1A1B18D8889794068102905D096
:10208800202905D0082906D12A5402E02A5200E066
:102098002A50002038BD1A680248236804F03AFA2A
:1020A800012038BD92B9000830B585B098B14379A0
:1020B80004790A4D01229A40E140013A0A40016838
:1020C80007480093012B98BF2846019002940548C1
:1020D800134604F01FFA05B030BD00BFCCB90008A4
:1020E800C6B90008D2B9000873B515461E4604469D
:1020F800D8B18379009383880D48194401912168E8
:10210800134604F007FAA46844B176B1236833B1E2
:1021180020462946FFF7C8FF0834F7E72EB10A2002
:1021280002B0BDE8704004F009BA02B070BD00BF4B
:10213800FBB9000870B50E460546A8B10B4895E8EE
:10214800060004F0E7F9AC6804B970BD22685AB11A
:1021580021462846FFF76AFF69680246334620464B
:10216800FFF7C2FF0C34F1E770BD00BF36BA0008B4
:10217800F8B50646092004F0E1F906F10C05082433
:102188002F4655F80C1CA1B10A4804F0C3F9AB1B43
:102198003B44044453F80C3C4BB1074804F0BAF9EB
:1021A8000444462C03D9054804F0B4F908240C3536
:1021B800E7E7F8BDE3B60008CFB900085EBA000843
:1021C800F8B50646092004F0B9F906F10C0508240B
:1021D8002F4655F80C1CB1B10B4804F09BF9AB1B0A
:1021E8003B44204453F80C3CC4B253B1074804F0B4
:1021F80091F92044C4B2462C03D9054804F08AF961
:1022080008240C35E5E7F8BDE3B60008CFB90008A7
:102218005EBA00082DE9F041022886B020D105A851
:10222800FFF79CFC10B9059E694C07E0694804F06B
:10223800C1F96948FFF79CFF684842E054F80C5C14
:10224800A4F10C0725B33046294604F045FA0C34AE
:102258000028F3D16248294604F05CF9B86825E003
:1022680002A8FFF77BFC10B9029E594C09E05D48B3
:1022780004F0A0F921E0304604F02EFA0C340746A9
:1022880010B354F80C1CA4F10C050029F3D110E08C
:102298003146554804F03EF94F48FFF769FF93E08F
:1022A80052482A68314604F035F9A868FFF788FFD4
:1022B80006E04F48314604F02DF94748FFF758FF2C
:1022C8004C4804F077F97FE003A8FFF747FC10B10A
:1022D8002846394610E0AC68039E2168304621B193
:1022E80004F0FAF958B10C34F7E7434904F0F4F96B
:1022F8000028D5D128460121FFF71CFF64E004A877
:10230800FFF72CFC60B9A668DDF8108037689FB12C
:102318004046394604F0E0F900282BD00836F5E7A6
:1023280021462846FFF782FE696805900246012388
:102338002046FFF7D9FE47E004F054F83946076015
:102348003A46049804F0F2FB059004F04BF8036851
:1023580023B12A48049904F0DDF835E02146059AAE
:102368002846FFF783FE29682268059B244804F065
:10237800D1F829E005A8FFF7DDFB10B12148216855
:10238800E9E721462846FFF751FE73790121994074
:102398003379013901FA03F220FA03F820EA02023C
:1023A800059808EA0107014001FA03F31A43214698
:1023B8002846FFF75BFE059B0097019312482968A2
:1023C8002268336804F0A6F806B0BDE8F08100BFC3
:1023D800C85D010861BA0008BC5D010850BC00086E
:1023E800BCBD0008A5BC000881BD0008D4BC00081D
:1023F800E1BD00081BBE00081DBE000853BD000853
:1024080071BD000811BD00083CBD0008154AD2F88E
:10241800883043F47003C2F88830134B196841F0D0
:10242800010119605868114901405960196821F083
:10243800847121F480311960196821F480211960B0
:10244800596821F4FE015960D96A21F00F01D96257
:10245800186B074901401963002199604FF0006328
:102468009360704700ED00E0001002400CC07FF858
:10247800CCFC00FF38B50368DA07044604D42368A7
:102488009B0700F1D5806EE1BB4B5A6802F00C0245
:10249800042A07D05A6802F00C02082A2AD15B687D
:1024A800DD0327D54FF4003393FAA3F3B3FA83F38C
:1024B80043F02003C3F34213012BAF4B01D11B6838
:1024C80006E04FF4003292FAA2F2B2FA82F25B6AA4
:1024D8004FF4003292FAA2F2B2FA82F2012102F02B
:1024E8001F0201FA02F21A42C9D063688B42C6D0B1
:1024F800012038BDA14B00221A7000F0DBFC054614
:102508004FF4003393FAA3F3B3FA83F343F02003B1
:10251800C3F34213012B984B01D11B6806E04FF41B
:10252800003292FAA2F2B2FA82F25B6A4FF40032F7
:1025380092FAA2F2B2FA82F2012102F01F0201FA23
:1025480002F21A4208D000F0B5FC41F28833401B71
:102558009842D5D9032038BD884B22791A70D3F810
:102568002A10A26821F00F010A43C3F82A206368E1
:10257800012B2ED100F09EFC05464FF4003393FA50
:10258800A3F3B3FA83F343F02003C3F34213012BFD
:10259800794B01D11B6806E04FF4003292FAA2F29F
:1025A800B2FA82F25B6A4FF4003292FAA2F2B2FAFD
:1025B80082F2012102F01F0201FA02F21A427FF4AC
:1025C8005EAF00F077FC41F28833401B9842D4D9C3
:1025D800C0E700F06FFC05464FF4003393FAA3F30D
:1025E800B3FA83F343F02003C3F34213012B624B86
:1025F80001D11B6806E04FF4003292FAA2F2B2FA57
:1026080082F25B6A4FF4003292FAA2F2B2FA82F2D4
:10261800012102F01F0201FA02F21A423FF42FAF21
:1026280000F048FC41F28833401B9842D4D991E726
:10263800514B5A6812F00C0F07D05A6802F00C027E
:10264800082A27D15B68D80324D4022393FAA3F37A
:10265800B3FA83F343F02003C3F34213012B464B31
:1026680001D11B6805E0022292FAA2F2B2FA82F2C4
:102678005B6A022292FAA2F2B2FA82F2012102F015
:102688001F0201FA02F21A4233D023698B427FF407
:102698002FAF2EE022693A4B002A3AD001221A6065
:1026A80000F008FC0546022393FAA3F3B3FA83F378
:1026B80043F02003C3F34213012B2F4B01D11B68B6
:1026C80005E0022292FAA2F2B2FA82F25B6A0222D0
:1026D80092FAA2F2B2FA82F2012102F01F0201FA82
:1026E80002F21A4205D100F0E5FB401B6428DAD952
:1026F80030E7214BF8211A6891FAA1F1B1FA81F17A
:102708006369C9B222F0F8028B4013431A4A136076
:1027180029E01A6000F0CEFB0546022393FAA3F3E2
:10272800B3FA83F343F02003C3F34213012B124B94
:1027380001D11B6805E0022292FAA2F2B2FA82F2F3
:102748005B6A022292FAA2F2B2FA82F2012102F044
:102758001F0201FA02F21A4205D000F0ABFB401B3F
:102768006428DAD9F6E6236819070BD423685A07D0
:1027780040F1B6804EE000BF001002400210024057
:1027880000004242A269BB4B12B301221A6000F05A
:1027980091FB0546022393FAA3F3B3FA83F30223CA
:1027A80093FAA3F3B3FA83F3B34B02225B6A92FA68
:1027B800A2F2B2FA82F2012102F01F0201FA02F239
:1027C8001A42D3D100F076FB401B6428E2D9C1E657
:1027D8001A6000F06FFB0546022393FAA3F3B3FADD
:1027E80083F3022393FAA3F3B3FA83F3A24B0222EF
:1027F8005B6A92FAA2F2B2FA82F2012102F01F0297
:1028080001FA02F21A42B1D000F054FB401B6428CE
:10281800E2D99FE6984BDA6942F08052DA61A3F573
:10282800D0331A6842F480721A6000F043FB054600
:10283800924B1B68DB0557D58F4B1A6A22F00502AD
:102848001A6200F037FB0546022393FAA3F3B3FAA2
:1028580083F3022393FAA3F3B3FA83F343F0400319
:10286800C3F34213022B844B4FF002020CBF1B6AC6
:102878005B6A92FAA2F2B2FA82F2012102F01F0216
:1028880001FA02F21A4235D17B4AE368116A21F053
:1028980005011943012B11623CD100F00BFB0546E1
:1028A800022393FAA3F3B3FA83F3022393FAA3F36D
:1028B800B3FA83F343F04003C3F34213022B6E4B86
:1028C8004FF002020CBF1B6A5B6A92FAA2F2B2FADC
:1028D80082F2012102F01F0201FA02F21A4211D01B
:1028E800E369002B41D194E000F0E4FA401B64282E
:1028F8009ED92FE600F0DEFA41F28833401B984259
:10290800A2D927E600F0D6FA41F28833401B984254
:10291800C6D91FE600F0CEFA0546022393FAA3F3C0
:10292800B3FA83F3022393FAA3F3B3FA83F343F0DE
:102938004003C3F34213022B4F4B4FF002020CBF6C
:102948001B6A5B6A92FAA2F2B2FA82F2012102F0E1
:102958001F0201FA02F21A42C2D000F0ABFA41F2A9
:102968008833401B9842D8D9F4E5434A526802F0AC
:102978000C02082A3FF4BCAD022B414B4FF0000279
:102988001A6064D100F096FA05464FF0007393FA86
:10299800A3F3B3FA83F343F02003C3F34213012BE9
:1029A800354B38D11A684FF0007191FAA1F1B1FA9C
:1029B80081F1012301F01F0103FA01F1114232D123
:1029C8002D4A256A5068616A20F47410294301432E
:1029D80051602B4A136000F06DFA04464FF0007303
:1029E80093FAA3F3B3FA83F343F02003C3F3421338
:1029F800012B214B1DD11B684FF0007292FAA2F2F5
:102A0800B2FA82F2012102F01F0201FA02F21A421E
:102A180017D0002038BD4FF0007292FAA2F2B2FA35
:102A280082F25A6ABFE700F045FA401B6428ACD925
:102A380090E54FF0007292FAA2F2B2FA82F25B6A63
:102A4800DAE700F037FA001B6428C7D982E500F0FE
:102A580031FA04464FF0007393FAA3F3B3FA83F301
:102A680043F02003C3F34213012B034B0AD11B6825
:102A78000FE000BF80044242001002400070004096
:102A8800600042424FF0007292FAA2F2B2FA82F269
:102A98005B6A4FF0007292FAA2F2B2FA82F2012156
:102AA80002F01F0201FA02F21A42B2D000F002FA52
:102AB800001B6428CED94DE5B34B1A6802F0070213
:102AC800914270B504460D4640F2B4801A6822F06F
:102AD80007020A431A601B6803F007038B4201D000
:102AE800012070BD0368980706D5A84AA1685068F8
:102AF80020F0F00001435160D9070BD423685A072E
:102B080040F14681A14AE168506820F4E060014341
:102B180051603DE16368012B18D14FF4003292FAFD
:102B2800A2F2B2FA82F242F02002C2F34212012A61
:102B3800964A01D1126806E04FF4003191FAA1F1EA
:102B4800B1FA81F1526A4FF400312FE0022B18D10B
:102B58004FF0007292FAA2F2B2FA82F242F0200228
:102B6800C2F34212012A894A01D1126806E04FF0E5
:102B7800007191FAA1F1B1FA81F1526A4FF0007136
:102B880014E0022292FAA2F2B2FA82F242F0200291
:102B9800C2F34212012A7D4A01D1126805E00221DE
:102BA80091FAA1F1B1FA81F1526A022191FAA1F1E7
:102BB800B1FA81F1012001F01F0100FA01F111427F
:102BC8008ED0724A516821F003010B43536000F024
:102BD80071F96368012B05460ED16C4B5B6803F0F5
:102BE8000C03042B8AD000F065F941F28833401BAE
:102BF8009842F2D9032070BD022B0CD0634B5B685E
:102C080013F00C0F0ED179E700F054F941F2883334
:102C1800401B9842EED85D4B5B6803F00C03082B11
:102C2800F2D16BE700F046F941F28833401B984235
:102C3800E4D9DFE703689E0706D5544AA1685068BF
:102C480020F0F00001435160D8070CD44E4B1A68AD
:102C580022F007022A431A601B6803F00703AB42FD
:102C68007FF43EAF4AE76368012B18D14FF4003276
:102C780092FAA2F2B2FA82F242F02002C2F34212AF
:102C8800012A424A01D1126806E04FF4003191FA54
:102C9800A1F1B1FA81F1526A4FF400312FE0022B11
:102CA80018D14FF0007292FAA2F2B2FA82F242F010
:102CB8002002C2F34212012A344A01D1126806E006
:102CC8004FF0007191FAA1F1B1FA81F1526A4FF017
:102CD800007114E0022292FAA2F2B2FA82F242F0F1
:102CE8002002C2F34212012A284A01D1126805E0E3
:102CF800022191FAA1F1B1FA81F1526A022191FA05
:102D0800A1F1B1FA81F1012001F01F0100FA01F1EE
:102D180011423FF4E5AE1D4A516821F003010B430F
:102D2800536000F0C7F86368012B06460DD1174BB6
:102D38005B6803F00C03042B88D000F0BBF841F269
:102D48008833801B9842F2D954E7022B0DD00F4BE1
:102D58005B6813F00C0F0FD178E700F0ABF841F285
:102D68008833801B98423FF645AF084B5B6803F0F9
:102D78000C03082BF1D169E700F09CF841F2883385
:102D8800801B9842E3D935E700200240001002403A
:102D9800190707D5064B21695A6822F4605242EA9E
:102DA800C1025A600F2000F058F8002070BD00BF23
:102DB80000100240154B5B6803F00C02082A22D170
:102DC8004FF4701292FAA2F2B2FA82F203F470117E
:102DD800D2B221FA02F20E498A5C0C49C86A0F2164
:102DE80091FAA1F1B1FA81F100F00F00C9B220FA0D
:102DF80001F10848DB03415C4ABF07480748B0FBBC
:102E0800F1F0504370470448704700BF001002407B
:102E1800BCB80108ACB8010800127A0000093D00EE
:102E280008B5FFF7C7FF094B5A68F02393FAA3F3D5
:102E3800B3FA83F302F0F002DBB222FA03F3044A96
:102E4800D35CD840034B186008BD00BF0010024097
:102E58009CB8010814000020704710B50446FFF71D
:102E6800DFFF4FF47A73B0FBF3F000F087F84FF010
:102E7800FF302146002200F043F8002010BD00007A
:102E880008B5074B1A6842F010021A60032000F0D8
:102E980025F80F20FFF7E1FFFFF7DEFF002008BD50
:102EA80000200240024B1A6801321A60704700BFC6
:102EB800F00B0020014B1868704700BFF00B002092
:102EC80013B50190FFF7F6FF0446FFF7F3FF019BE8
:102ED800001B9842F9D302B010BD0000074AD16820
:102EE8004FF6FF030B4043F0BF6343F4003300F099
:102EF800070043EA0023D360704700BF00ED00E0FD
:102F0800164BDB68C3F3022370B51D1DC3F107041C
:102F1800042C28BF0424062D4FF001058CBF033B69
:102F2800002305FA04F405FA03F6013C013E2140AA
:102F3800324001FA03F3134300284FEA031305DA7A
:102F4800DAB200F00F00064B1A5470BD00F1604071
:102F580000F56140DBB280F8003370BD00ED00E0A1
:102F680014ED00E04209012300F01F0003FA00F00D
:102F7800014B43F82200704700E100E00138B0F14E
:102F8800807F0AD2064B074A5860F02182F8231046
:102F98000020072298601A6070470120704700BF20
:102FA80010E000E000ED00E02DE9F043D1F800C0AA
:102FB800002301229A4002EA0C04944240F0A080C7
:102FC8004A6822F01007022F13D1DE0800EB8606AC
:102FD80003F00708356A4FEA88084FF00F0909FA25
:102FE80008F925EA09090D6905FA08F849EA080502
:102FF80035625D000326D0F80090AE40F64302F03B
:10300800030806EA090908FA05F8013F49EA080829
:10301800012FC0F8008010D8876806EA0708CF6833
:10302800AF4048EA07078760476827EA0408C2F301
:1030380000179F4048EA07074760C7683E408F6807
:10304800AF4046EA0705C560D50059D52F4DAE6992
:1030580046F00106AE6123F0030606F1804606F548
:10306800803603F00307B568BF004FF00F0808FA71
:1030780007F8B0F1904F25EA080815D0244DA8426A
:1030880014D005F58065A84212D005F58065A842E0
:1030980010D005F58065A8420ED005F58065A842D8
:1030A80014BF0625052508E0002506E0012504E0F3
:1030B800022502E0032500E00425BD4045EA080595
:1030C800B560144E3768E54312F4803F14BF2743B8
:1030D8002F403760776896030E4E4CBF27432F402A
:1030E8007760B76812F4801F14BF27432F40B7607A
:1030F800F6689202074A54BF05EA06043443D460CE
:103108000133102B7FF455AFBDE8F0830010024067
:103118000004004800040140036919420CBF002064
:10312800012070470AB101837047418370474369A2
:1031380059404161704738B5044600283FD0022302
:1031480080F8413102F068FA606823460022824222
:1031580003F11C034FF0000108D001251A735D73B9
:10316800D9739961D96119622A44F0E722468142EC
:1031780002F11C024FF000030DD082F8981082F87B
:10318800993082F89B30C2F8A430C2F8A830C2F84F
:10319800AC300131EBE722680121A2F840104FF46E
:1031A8003D41A2F84030A2F84430A2F85030A2F8CD
:1031B800401084F82430184684F8413138BD012085
:1031C80038BD08B5012100F0DAFE002008BD90F8EE
:1031D8004031012B0FD0012380F8403121B9036819
:1031E8008022A3F84C2001E080F82410002380F806
:1031F80040311846704702207047F0B5CCB214F041
:10320800800F01F07F054FF01C0615BF06FB050176
:1032180006FB01012831B431E4090D704C70CB7004
:1032280090F84031CA60012B00F08881012380F8B2
:103238004031CC780A780368032C32D8DFE804F0F0
:1032480002240E1814B233F8242022F4EC4222F09F
:1032580070021204120C42F4007220E014B233F827
:10326800242022F4EC4222F070021204120C16E020
:1032780014B233F8242022F4EC4222F07002120433
:10328800120C42F4C0620AE014B233F8242022F48B
:10329800EC4222F070021204120C42F4806223F80D
:1032A80024200D782CB233F8242022F0F0021205E5
:1032B800120D2A4342F4004242F0800223F82420EF
:1032C8008C7A0A78002C75D14C788E8808253CB306
:1032D800B3F85040A4B215FB024203EB4202760851
:1032E8007600C2F800640C7833F8242055060BD514
:1032F80033F8242022F0F0021205120D42F40042A5
:1033080042F0C00223F82420097833F8212022F45F
:10331800E04222F040021204120C82F0200202E184
:10332800B3F85070BFB215FB0272043203F5806423
:103338007608760044F81260B3F850600A78B6B29E
:1033480015FB0265CA683E2A05F106060BD9C2F3C9
:103358004F15D20604BF05F1FF35ADB26FEAC5655A
:103368006FEA554506E0C2F34F05D70744BF01355C
:10337800ADB2AD02ADB244F816500C7833F8242043
:1033880052040BD533F8242022F0F0021205120D56
:1033980042F4404242F0800223F82420097833F8AE
:1033A800212022F4804222F070021204120C82F4CE
:1033B8004052B8E014B233F8242022F4F87212050F
:1033C800120D42F4014242F0800223F82420B3F89F
:1033D80050500E780824ADB214FB0655CE8803F57C
:1033E80080627608760042F81560B3F850500E787F
:1033F800ADB214FB06540D8904346D086D0042F813
:1034080014500C784A7824B2002A46D133F8242084
:1034180057040BD533F8242022F0F0021205120DC0
:1034280042F4404242F0800223F824200C7833F81A
:10343800242056060BD533F8242022F0F00212057A
:10344800120D42F4004242F0C00223F824200C7806
:1034580033F8242022F0F0021205120D42F4004243
:1034680042F0C00223F824200C7833F8242022F4F8
:10347800804222F070021204120C82F4405242F48C
:10348800004242F0800223F82420097833F82120F2
:1034980022F4E04222F0400243E033F824205504AD
:1034A8000BD533F8242022F0F0021205120D42F455
:1034B800404242F0800223F824200C7833F824207C
:1034C80052060BD533F8242022F0F0021205120D13
:1034D80042F4004242F0C00223F824200C7833F86A
:1034E800242022F0F0021205120D42F4404242F06C
:1034F800800223F824200C7833F8242022F4E042B8
:1035080022F040021204120C42F4004242F08002FF
:1035180023F82420097833F8212022F4804222F06D
:1035280070021204120C42F4004242F0800223F8A6
:103538002120002380F840311846F0BD0220F0BD5C
:10354800CBB213F0800F01F07F0230B54FF01C04AE
:1035580015BF04FB020104FB01012831B431DB096A
:103568000A704B7090F84031012B00F0C2800123A3
:1035780080F840318D7A4C7803680A7845BBC4B12D
:1035880014B233F8242055060BD533F8242022F042
:10359800F0021205120D42F4004242F0C00223F874
:1035A8002420097833F8212022F4E04222F0400256
:1035B80092E014B233F82420520440F1868033F8A4
:1035C800242022F0F0021205120D42F4404278E065
:1035D800002C3CD114B233F8242055040BD533F811
:1035E800242022F0F0021205120D42F4404242F06B
:1035F800800223F824200C7833F8242052060BD5B7
:1036080033F8242022F0F0021205120D42F4004291
:1036180042F0C00223F824200C7833F8242022F04A
:10362800F0021205120D42F4004242F0C00223F8E3
:1036380024200C7833F8242022F4804222F07002EF
:103648001204120C42F4004242F08002A7E714B2BE
:1036580033F8242055040BD533F8242022F0F00247
:103668001205120D42F4404242F0800223F8242051
:103678000C7833F8242052060BD533F8242022F096
:10368800F0021205120D42F4004242F0C00223F883
:1036980024200C7833F8242022F0F0021205120DB1
:1036A80042F4404242F0800223F824200C7833F898
:1036B800242022F4E04222F040021204120C42F4C8
:1036C800004242F0800223F82420097833F82120B0
:1036D80022F4804222F070021204120C42F40042DA
:1036E80042F0800223F82120002380F84031184658
:1036F80030BD022030BD70B501F07F011C2505FBEF
:103708000105B0352C1D2261002262706361A2613F
:10371800297190F84011012953D0012180F84011F6
:10372800E168A67A8B4285BFC1EB030363616261DE
:103738000B46026829790EB164780CBBB2F8504088
:10374800A4B204EBC1013E2B02F5806601F106012B
:103758000BD9C3F34F14DB0604BF04F1FF34A4B242
:103768006FEAC4646FEA544406E0C3F34F04DB070E
:1037780044BF0134A4B2A402A4B246F811400AE03E
:10378800012C08D1B2F85040A4B204EBC10102EBFD
:103798004101C1F80C34297932F8213023F48043EF
:1037A80023F070031B041B0C83F4405343F40043C1
:1037B80043F0800322F82130002380F84031184676
:1037C80070BD022070BD01F07F011C2303FB0100C6
:1037D800B0F8CC007047F8B501F07F011C274F43C3
:1037E8002837C51904466B611E46002001236B70FB
:1037F8002A61A861E15594F84011994200F095803A
:1038080084F84031EB68A97A9E4283BFC3EB060671
:103818006E611E466861B3B281B911462068AA88F4
:1038280000F085FB2368E15DB3F8502092B202EB0B
:10383800C10203EB4203C3F8046460E095F801E0B9
:103848002068E15DBEF1000F22D1B0F850C01FFA28
:103858008CFC0CEBC1013E2E00F5806E01F1060CCC
:103868000BD9C6F34F11F60604BF01F1FF3189B237
:103878006FEAC1616FEA514106E0C6F34F01F607EE
:1038880044BF013189B2890289B24EF81C100CE09C
:10389800BEF1010F09D1B0F850E01FFA8EFE0EEB11
:1038A800C10100EB4101C1F80C64E15D30F8211061
:1038B80049064CBF2E89EE881146324600F037FB88
:1038C8006B782268E15D5BB909B232F8213023F0E8
:1038D800F0031B051B0D43F4004343F0C0030CE049
:1038E800012B0CD109B232F8213023F0F0031B056B
:1038F8001B0D43F4404343F0800322F82130E15D7F
:10390800226832F8213023F4E04323F040031B04FB
:103918001B0C83F0300343F4004343F08003002082
:1039280022F8213084F84001F8BD0220F8BD036870
:10393800B3F844301BB2002B2DE9F743044611DBE2
:103948002368B3F84420520540F1C3814FF6FF3293
:103958002046A3F8442001F0C9FE20460021FFF7C5
:1039680036FCB6E10023ADF806302068B0F84430E4
:103978009BB2ADF804301B04E2D5BDF8048018F002
:103988000F0840F0B780BDF80410038801F010015B
:1039980089B259BB23F4E14323F070031B041B0CC9
:1039A8000380B0F8503094F828209BB203EBC20390
:1039B80000EB4300A26BD0F80434C3F3090323647B
:1039C8001344A363204601F085FE94F82430002BAD
:1039D800CBD0E36B002BC8D194F82410226841F0B7
:1039E8008001A2F84C1084F82430BEE79BB2ADF8F1
:1039F8000630BDF806301B051FD5B0F8503094F8D6
:103A0800B4209BB203EBC20300EB4303B4F8B82025
:103A1800D3F80C34C3F30903C4F8CC3004F5A2710D
:103A280000F09CFA2268138823F070031B051B0D15
:103A38001380204601F03EFE97E7BDF806301BB222
:103A4800002B92DA038823F070031B051B0D0380FB
:103A5800B0F8503094F8B4209BB203EBC20300EBEB
:103A68004303D3F80C34C3F30903C4F8CC3063B16F
:103A7800B4F8B820D4F8C41000F070FAD4F8C42010
:103A8800D4F8CC301344C4F8C4302046002101F0E7
:103A980018FE2268D4F8C030B2F850503E2BADB2B0
:103AA80002F5806005F106050BD9C3F34F11DF0657
:103AB80004BF01F1FF3189B26FEAC1616FEA514178
:103AC80006E0C3F34F01DE0744BF013189B2890222
:103AD800138823F4804323F070031B041B0C83F426
:103AE800405343F4004389B243F0800340F8151073
:103AF80013803AE70FFA88F730F827309BB2ADF811
:103B08000630BDF806301BB2002B6DDA30F82730CE
:103B18004FF01C0923F0700309FB08491B0509F144
:103B2800B0091B0D20F8273009F10405AA7A99F885
:103B380004309AB9B0F8502092B202EBC30300EBFC
:103B48004303D3F80C64C6F30906B6B2002E37D087
:103B58002969AA88334600F001FA31E01AB230F830
:103B68002220B0F8501012F4804F89B24FF00802AA
:103B780012FB031300EB430308D0D3F80464C6F325
:103B88000906B6B26EB12969EA8807E0D3F80C6471
:103B9800C6F30906B6B226B129692A89334600F068
:103BA800DDF999F80410226832F8213023F0F00387
:103BB8001B051B0D43F4004343F0C00322F82130DA
:103BC800AB692A6999F804103344AB616B693244D4
:103BD8002A6113B1E868864203D2204601F071FDDC
:103BE80002E02046FFF787FDBDF806301A067FF58C
:103BF800BCAE206830F8273023F4E1431C2623F0BC
:103C0800700306FB08F61B0428361B0C20F8273027
:103C1800A519A35DAA7A92B9B0F8502092B202EB26
:103C2800C30300EB4303D3F80434C3F30903AB61C4
:103C3800002B34D02969AA8800F079F92FE01AB24C
:103C480030F82220B0F8501012F0400F89B24FF02F
:103C5800080212FB031300EB430308D0D3F8043423
:103C6800C3F30903AB6163B12969EA8807E0D3F8B4
:103C78000C34C3F30903AB611BB129692A8900F02D
:103C880056F9A15D226832F8213023F0F0031B05B4
:103C98001B0D43F4404343F0800322F8213023688E
:103CA800A15DB3F8502092B202EBC10203EB4203CC
:103CB8002046D3F804242B69C2F30902AA611A44E6
:103CC8006B692A6113B901F005FD4EE6FFF783FD24
:103CD8004BE62368B3F84420570444BF4BF6FF7201
:103CE800A3F84420B3F84420960444BF4DF6FF726D
:103CF800A3F84420B3F84420D50413D5B3F84020E2
:103D080022F004021204120CA3F840204FF43D42A2
:103D1800A3F84020204601F0F7FC23684EF6FF7216
:103D2800A3F844202368B3F84420100518D54FF2AF
:103D3800FF72A3F84420B3F8402092B242F0080280
:103D4800A3F84020B3F8402092B242F00402A3F84E
:103D58004020B3F84430D90402D4204601F0D3FC03
:103D68002368B3F84420920506D54FF6FF52A3F80E
:103D78004420204601F0B6FC2368B3F84420D70558
:103D880044BF4FF6FF62A3F8442003B0BDE8F083B8
:103D980090F84031012B10B549D0CCB2012314F072
:103DA800800F80F8403101F07F024FF01C0315BFEF
:103DB80003FB020303FB01032833B4330121997089
:103DC800E409D1B219705C70026881B9138823F4D0
:103DD800804323F040031B041B0C83F4805383F0BF
:103DE800100343F4004343F0800313801AE009B240
:103DF80032F8213044B123F4E04323F040031B049C
:103E08001B0C83F0100307E023F4804323F07003B6
:103E18001B041B0C83F4805343F4004343F08003DA
:103E280022F82130002380F84031184610BD0220C6
:103E380010BDCBB213F0800F01F07F0210B54FF028
:103E48001C0415BF04FB020104FB01012831B43135
:103E5800DB0900248C700A704B7090F84031012BFC
:103E680049D0012380F840310C784A78036824B29D
:103E7800DAB133F8242052060BD533F8242022F087
:103E8800F0021205120D42F4004242F0C00223F87B
:103E98002420097833F8212022F4E04222F040025D
:103EA8001204120C82F030021AE033F82420520473
:103EB8000BD533F8242022F0F0021205120D42F43B
:103EC800404242F0800223F82420097833F8212068
:103ED80022F4804222F070021204120C82F4405242
:103EE80042F4004242F0800223F82120002380F8A7
:103EF8004031184610BD022010BD11F0800F10B5DA
:103F08004FF01C0405D001F07F0104FB01002830AC
:103F180002E004FB0100B43012B98272838004E02D
:103F28000122C3801B0C82720381002010BD013363
:103F380000F5806030B55B1000EB420200249C4223
:103F480001F1020109D011F8015C11F8020C40EAF4
:103F5800052022F824000134F1E730BD013300F5D3
:103F6800806030B55B1000EB420200249C4205D013
:103F780052F8245021F814500134F7E730BD704747
:103F880030B50468064865682840039D2843034304
:103F9800C1F3090143EA010040EA0242626030BD10
:103FA800009800FC70B504460D46FEF783FF2368B1
:103FB8009A69064612F0100039D094F83520122A72
:103FC80007D094F83520522A03D094F83520622A75
:103FD80012D15A6890010FD45A6842F480425A604C
:103FE8000AE09A69920611D4691CFAD035B1FEF735
:103FF80061FF801BA84201D82368F2E7012384F8F7
:104008003530002384F83430032070BD1022DA6183
:104018002022DA615968064A0A405A60042384F863
:1040280036300120002384F8350084F8343070BD20
:1040380000E800FE2DE9F04104460E4690461D4674
:10404800FEF738FF0746B8F1000F25D122689369BB
:104058003340B3420ED0691CF9D07DB1FEF72AFF78
:10406800C01BA842F2D909E06B1C06D19369334002
:10407800B342F9D00020BDE8F08145B9012384F8A6
:104088003530002384F834300320BDE8F081FEF792
:1040980011FFC01BA842F1D82268E7E770B50446B3
:1040A8000D46FEF707FF064623689B6998071BD451
:1040B80020462946FFF776FFC0B96B1CF4D06DB9CE
:1040C80094F8363043F0200384F83630012384F81E
:1040D8003530002384F83430032070BDFEF7EAFE43
:1040E800801BA842E0D9EBE7002070BD012070BD1D
:1040F800F7B5089D1F464FF4005304460093164633
:104108004FF08073FAB2FFF73BFF20462946FFF7CE
:10411800C5FF30B194F83630042B0CBF01200320C2
:1041280017E0012F236808D0320A9A6220462946F0
:10413800FFF7B4FF0028EDD12368F6B29E6220464F
:10414800802100222B46FFF775FF002814BF0320AB
:10415800002003B0F0BDF7B5089D1F464FF400538B
:104168000446009316460023FAB2FFF709FF2046DB
:104178002946FFF793FF30B194F83630042B0CBF73
:104188000120032017E0012F236808D0320A9A6221
:1041980020462946FFF782FF0028EDD12368F6B2B2
:1041A8009E622046402100222B46FFF743FF00284D
:1041B80014BF0320002003B0F0BD70B504460D46BF
:1041C800FEF778FE064623689B699A0619D42046AE
:1041D8002946FFF7E7FEB0B96DB994F8363043F0D9
:1041E800200384F83630012384F83530002384F81E
:1041F8003430032070BDFEF75DFE801BA842E2D973
:10420800EBE7002070BD012070BD704710B5044673
:10421800002841D090F835300BB9FFF7F6FF02239C
:1042280084F835302368E1681A6822F001021A60C0
:10423800626822F070621A619A6822F400429A60F9
:10424800A26842B1012903D142F400429A6007E012
:1042580042F404429A60022904BF4FF400625A6093
:104268005A68616942F0007242F400425A60226959
:104278001143A26941EA0222DA60216AE2690A432B
:104288001A601A6842F001021A600020012384F8BB
:10429800360084F8353010BD012010BD704710B5C8
:1042A800044688B1022380F8353003681A6822F082
:1042B80001021A60FFF7F2FF002084F8360084F844
:1042C800340084F8350010BD012010BD2DE9F347F6
:1042D80090F835A0DDF82880BDF82C50DDF8309036
:1042E8005FFA8AFABAF1010F04460F4664D1B8F1B1
:1042F800000F01D1012062E0002DFBD00668B669ED
:1043080016F4004658D190F834C0BCF1010F53D0D0
:104318004FF0520E80F835E080F834A080F836600F
:10432800CDF80090FFF7E4FE20B194F8363084F819
:10433800346031E00090FF2D204639461CD8EAB29F
:104348004FF00073FFF71CFE2E4620464946FFF744
:10435800A5FEF8B9236818F8012B013D013E9A62C1
:10436800ADB210D18DB12046802132464B46FFF7C1
:1043780061FE18BB0096DEE7FF224FF08073FFF75F
:10438800FFFDFF26E1E7002DDFD120461921FFF7C9
:1043980014FF20B194F83630042B0FD1AAE7236814
:1043A8002022DA615968074A0A405A60012384F8D2
:1043B800353084F8340002E0022000E0032002B027
:1043C800BDE8F08700E800FE2DE9F34790F835A036
:1043D800DDF82880BDF82C50DDF830905FFA8AFAB5
:1043E800BAF1010F04460F466CD1B8F1000F01D1A4
:1043F800012068E0002DFBD00668B66916F4004677
:1044080060D190F834C0BCF1010F5BD04FF0620E60
:1044180080F835E080F834A080F83660CDF8009058
:10442800FFF799FE20B194F8363084F8346038E00C
:104438004FF41053FF2D00932046394621D8EAB295
:104448004FF00073FFF79CFD2E4620460421002202
:104458004B46FFF7EFFD30BB23685B6A013D013E29
:1044680008F8013BADB213D1A5B1204680213246F0
:104478004B46FFF7DFFDB0B9009620463946FF2DC1
:10448800DCE7FF224FF08073FFF77AFDFF26DCE7B9
:10449800002DDAD120461921FFF78FFE28B194F8B4
:1044A8003630042BA4D003200DE023682022DA61E3
:1044B8005968064A0A405A60012384F8353084F85E
:1044C800340000E0022002B0BDE8F08700E800FEFA
:1044D80090F8350070472DE9F04104460F4616461E
:1044E8001D46FEF7E7FC8046226893683B40B342CE
:1044F80033D06B1CF9D04DB923685A6822F0E0021A
:104508005A606268B2F5827F12D106E0FEF7D2FCEB
:10451800C8EB0000A842E7D9EEE7A268B2F5004F61
:1045280002D0B2F5806F03D11A6822F040021A60F7
:10453800A26AB2F5005F07D11A6822F400521A6025
:104548001A6842F400521A60012384F85D3000238F
:1045580084F85C300320BDE8F0810020BDE8F081DC
:104568002DE9F34104460F4616461D46FEF7A2FC08
:10457800804623689A683A40B2423AD0B7F5C06F8D
:1045880004D11EB91A7BD2B28DF807206A1CF1D06B
:104598004DB923685A6822F0E0025A606268B2F5A1
:1045A800827F12D106E0FEF785FCC8EB0000A84226
:1045B800DFD9EEE7A268B2F5004F02D0B2F5806FFE
:1045C80003D11A6822F040021A60A26AB2F5005FAD
:1045D80007D11A6822F400521A601A6842F400528D
:1045E8001A60012384F85D30002384F85C300320CE
:1045F80000E0002002B0BDE8F08138B50D46002289
:104608004FF4C0512B460446FFF7AAFF024668B98B
:10461800204680212B46FFF75EFF024630B9204630
:104628004FF4C0612B46FFF79BFF30B194F85E3022
:1046380043F0200384F85E30032038BD704770B51E
:10464800044600284BD0022380F85D30FFF7F6FFC0
:104658002368E1681A68B1F5E06F22F040021A6039
:104668004FF0000003D90246B1F5706F01E04FF436
:10467800805218BFA062206B28B9B1F5E06F8CBFDB
:104688000220012020636568A668A0692E43256979
:104698002E4365692E43E5692E43256A2E43A56A94
:1046A800354300F4007635431D60256B022D03D198
:1046B8001D6845F400651D60656A2943656B000C3B
:1046C8000D4300F0040005432A435A60E26A0020C3
:1046D8001A61012384F85E0084F85D3070BD012002
:1046E80070BD704710B5044688B1022380F85D306C
:1046F80003681A6822F040021A60FFF7F2FF0020F0
:1047080084F85E0084F85D0084F85C0010BD012028
:1047180010BD2DE9F74F90F85D700C9D4FF0000B20
:10472800012F0446894692461E46ADF806B001D0D0
:1047380002202DE1002900F02881002A00F02581BF
:10474800002B00F02281FEF7B5FB94F85C30012BBA
:104758008046EDD0052384F85D30A36A84F85C7048
:10476800B3F5005F84F85EB0C4F840A0A4F84660D2
:10477800A4F84460C4F83890E687A687226807D171
:10478800136823F400531360136843F40053136051
:10479800E3685168B3F5E06F01D8012E02D921F41E
:1047A800805101E041F48051516011684F0603D4F3
:1047B800116841F040011160B3F5E06F3FD9E08F17
:1047C800B4F8461068B323689A68960710D5A26BA8
:1047D800013832F8026B80B2DE60A263E08738B934
:1047E800A26AB2F5005F03D11A6842F480521A60D7
:1047F80069B123689A68D20709D5DA68236C23F867
:10480800022B2364B4F84630013BA4F846306B1CF5
:10481800D5D015B3FEF74EFBC8EB0000A842CED9A1
:104828001BE00029E4D1A36AB3F5005F40F08D8056
:104838005EE0FEF73FFBC8EB0000A8420DD8E38F0F
:10484800002B50D0226891688F070DD4B4F8462009
:104858003ABB681CF3D0002DEBD1012384F85D30FE
:10486800002384F85C3092E0022BA16B05D931F863
:10487800020B023BD060A16305E04B1CA3630B78DD
:104888001373E38F013BE387E38F002BDED1A36A29
:10489800B3F5005FDAD123681A6842F480521A60CF
:1048A800D4E723689968CE07D3D5012A226C10D99A
:1048B800D96822F8021B2264B4F84620023A92B260
:1048C800012AA4F84620C4D85A6842F480525A6093
:1048D800BFE7511C21641B7B1370B4F84630013BC1
:1048E800A4F84630B5E7B4F84630002BAED19AE7C5
:1048F800022120460A462B46FFF7EDFD28B194F821
:104908005E3043F0020384F85E30E368B3F5706FFD
:10491800236802D1DB689BB215E01B7B216BDBB2FD
:104928000229ADF8063010D120460A462B46FFF77B
:10493800D2FD28B194F85E3043F0020384F85E306B
:1049480023681B7BDBB2ADF8063020462946FFF70B
:1049580054FEE0B921688B68012213F0100584F831
:104968005D2094F85E300AD043F0020384F85E308C
:104978006FF010038B6084F85C00104608E0181C88
:1049880084F85C5018BF012002E0384600E003209C
:1049980003B0BDE8F08F90F85D00704770470223C0
:1049A80080F8393003681A6842F001021A6001235E
:1049B80080F83930002070472A4A036890420ED0A8
:1049C800B0F1804F0BD0A2F59432904207D002F597
:1049D8008062904203D002F59632904215D14A681F
:1049E80023F0700313431F4A904219D0B0F1804F4F
:1049F80016D0A2F59432904212D002F5806290420D
:104A08000ED002F5963290420AD0174A904207D04B
:104A180002F58062904203D002F58062904203D191
:104A2800CA6823F44073134303608B68C3620B683E
:104A380083620C4B98420FD003F5006398420BD069
:104A480003F54063984207D003F58063984203D08A
:104A580003F58063984201D10B6903630123436125
:104A6800704700BF002C01400040014010B50446CB
:104A780080B190F839300BB9FFF790FF022384F822
:104A880039302068211DFFF797FF012384F839305A
:104A9800002010BD012010BD036A23F0010303624A
:104AA800036A426870B586690C6826F4803626F079
:104AB800730626438C6823F0020323431B4CA04251
:104AC8000FD004F50064A0420BD004F54064A04266
:104AD80007D004F58064A04203D004F58064A042A6
:104AE8001ED1CC6823F008032343104CA04223F0C6
:104AF80004030FD004F50064A0420BD004F5406411
:104B0800A04207D004F58064A04203D004F5806475
:104B1800A04205D18D694C6922F440722C4322438E
:104B280042604A6886614263036270BD002C01409E
:104B3800036A23F010030362036A426830B585698B
:104B48000C6825F0807525F4E64545EA04258C684F
:104B580023F0200343EA0413164CA04203D004F5C3
:104B68000064A0420DD1CC6823F0800343EA04130B
:104B7800104CA04223F040030ED004F50064A0427C
:104B88000AD00D4CA04207D004F58064A04203D09F
:104B980004F58064A04207D14C6922F4406242EADD
:104BA80084028C6942EA840242604A6885618263B1
:104BB800036230BD002C014000400140036A23F429
:104BC80080730362036A426830B5C5690C6825F4CE
:104BD800803525F0730525438C6823F4007343EA78
:104BE8000423174CA04203D004F50064A0420DD161
:104BF800CC6823F4006343EA0423114CA04223F455
:104C080080630ED004F50064A0420AD00D4CA04287
:104C180007D004F58064A04203D004F58064A04264
:104C280007D14C6922F4405242EA04128C6942EAE4
:104C3800041242604A68C561C263036230BD00BFA6
:104C4800002C014000400140036A23F480530362B2
:104C580030B5056A4368C2690C6822F0807222F494
:104C6800E64242EA04248A6825F4005545EA0235FA
:104C78000E4A90420FD002F5006290420BD002F526
:104C88004062904207D002F58062904203D002F55C
:104C98008062904204D14A6923F4804343EA821334
:104CA80043604B68C4610364056230BD002C014059
:104CB80038B590F83830012B04460D464FF0020005
:104CC80058D0012384F8383084F839000C2A4BD89E
:104CD800DFE802F0074A4A4A174A4A4A294A4A4A32
:104CE80039002068FFF7D8FE23689A6942F0080265
:104CF8009A619A6922F004029A6199692A690A43B9
:104D08000FE02068FFF714FF236829699A6942F4C5
:104D180000629A619A6922F480629A619A6942EA09
:104D280001229A6120E02068FFF748FF2368DA69CA
:104D380042F00802DA61DA6922F00402DA61D9691C
:104D48002A690A430FE02068FFF77EFF2368296974
:104D5800DA6942F40062DA61DA6922F48062DA61BF
:104D6800DA6942EA0122DA610123002084F8393045
:104D780084F8380038BD10B50123046A8B4024EA52
:104D880003030362036A8A401343036210BD0000F1
:104D980010B5044601220068FFF7EDFF23680E4AAC
:104DA80093420FD002F5006293420BD002F54062A5
:104DB800934207D002F58062934203D002F58062E5
:104DC800934203D15A6C42F400425A641A6842F082
:104DD80001021A60002010BD002C014008B580B106
:104DE800D0F8143213B10023C0F8143209B1C0F856
:104DF8001012012380F8FC31027000F087FC0020BB
:104E080008BD022008BD19B1C0F81412002070476F
:104E18000220704708B500F0B7FC002008BD08B5AF
:104E2800D0F814320BB9022008BD1B689847002837
:104E3800F9D108BD08B5D0F814325B68984700204E
:104E480008BD38B500F502750446284600F0C9F8D3
:104E58000123C4F8F43194F80812B4F80E32C4F8F7
:104E6800F83101F01F03012B0CD006D3022B0ED111
:104E78002046294600F0F8F90EE02046294600F0C1
:104E8800CFF809E02046294600F0D6F904E020468C
:104E980001F0800100F090FC002038BD38B50446D0
:104EA80009BBD0F8F431032B26D1D0F80C51D0F837
:104EB80010319D420AD9ED1A9D4238BF2B46114642
:104EC800C0F80C519AB200F06EFA15E0D0F814321E
:104ED8001B6923B190F8FC21032A00D1984720468A
:104EE80000F06AFA08E0D0F814329B6923B190F810
:104EF800FC21032A00D19847002038BD70B504462C
:104F0800002935D1D0F8F431022B29D1C569036ABB
:104F18009D4206D9EB1A1146C3619AB200F02AFAEB
:104F28001EE08569B5FBF3F603FB16565EB99D4294
:104F380009D3D0F8F8319D4205D2324600F01AFA6A
:104F4800C4F8F8610CE0D4F81432DB682BB194F89B
:104F5800FC21032A01D120469847204600F037FA61
:104F680094F80032012B0CD1002384F8003208E0B9
:104F7800D0F814325B6923B190F8FC21032A00D1E0
:104F88009847002070BD38B5002104460A464025E0
:104F9800402300F000FC2B46C4F810512046802125
:104FA800002200F0F8FB012384F8FC31D4F8183211
:104FB80025622BB1D4F8143221795B6820469847D2
:104FC800002038BD01740020704708B590F8FC2116
:104FD800032A04D1D0F81432DB6903B198470020C2
:104FE80008BD0B7803704B784370CA788B7803EB55
:104FF800022343804A790B7903EB02238380CA7921
:105008008B7903EB0223C380704710B580210446D7
:1050180000F0D2FB20460021BDE8104000F0CCBBD8
:1050280073B54B7804460D46092B00F2FC80DFE887
:1050380013F0CE00E500FA00E100FA0077000A005C
:10504800FA00BD0093006B881A0A013A062A00F29A
:10505800EA80DFE812F007000B001800E800E8001B
:105068003D004900D0F810321B682CE0027CD0F8D3
:1050780014320AB99B6A00E0DB6A0DF10600984712
:10508800022301463CE0DBB2052B00F2CC80DFE8CE
:1050980003F003070B0F1317D0F810325B6812E008
:1050A800D0F810329B680EE0D0F81032DB680AE0C6
:1050B800D0F810321B6906E0D0F810325B6902E0C4
:1050C800D0F810329B69207C0DF10601984709E061
:1050D800037C002B40F0A780D0F814320DF10600B5
:1050E8005B6B984701460CE0037C002B40F09B80EB
:1050F800D0F814320DF106001B6B984707230146C0
:105108004B70BDF80630002B00F09180EA88002A29
:1051180000F08D809A4228BF1A46ADF8062054E068
:10512800AB88002B7FD1EB88002B7CD190F8FC3129
:10513800AE78032B06F07F0675D080F8FE61314605
:1051480000F05BFB204600F037F90EB1022300E0C7
:10515800012384F8FC316AE0A978364E01293170C0
:1051680061D890F8FC31022B02D0032B08D05AE00A
:10517800002954D001210323416080F8FC310FE05D
:1051880031B9022380F8FC314160FFF753FE46E055
:105198004168012943D0C9B2FFF74CFE31786160FC
:1051A8002046FFF73CFE022839D13CE0EA88012A74
:1051B80039D190F8FC31022B03D0032B33D1011DD8
:1051C80015E00146002341F8083F20460FE090F81B
:1051D800FC31023B012B26D80123C360D0F80432EE
:1051E8000BB10323C360204604F10C01022200F036
:1051F800B3F81CE06B88012B19D108E090F8FC315A
:10520800023B012B0FD86B88012B10D10023C4F867
:105218000432D4F8143220469B6829469847204621
:1052280000F0CAF803E020462946FFF7EEFE00200A
:1052380002B070BDF40B002038B590F8FC31032B98
:1052480004460D460CD10B79012B09D8D0F814323D
:105258009B689847EB882BB9204600F0ADF801E031
:10526800FFF7D3FE002038BD70B54E788A88012E2E
:1052780004460D46D3B210D027D3032E4CD190F854
:10528800FC21022A28D0032A44D14A889AB95E060A
:1052980011D0194600F090FA0DE090F8FC21022A8E
:1052A8001AD0032A36D14A88002A35D1590608D09F
:1052B800194600F088FAD4F8143220469B6829462B
:1052C8009847204600F078F826E090F8FC51022D27
:1052D80002D0032D06D01DE05A061DD0194600F055
:1052E8006BFA19E003F07F0512F0800F00EB05154B
:1052F800194614BF143505F5827500F06BFA10B124
:1053080001232B6000E0286020462946022200F095
:1053180023F801E0FFF779FE002070BD30B5D0B169
:105328000023DCB20133C51815F8015C002DF8D153
:10533800631C5B0013800B7003234B70013802233E
:1053480010F8012F3AB15C1CE4B2CA5402330022AF
:10535800DBB20A55F4E730BD38B513460D460222D4
:10536800C0F8F4218361C36100212A4600F04CFA99
:10537800002038BD10B50C4613460021224600F027
:1053880043FA002010BD38B513460D460322C0F875
:10539800F421C0F80831C0F80C3100212A4600F089
:1053A8003AFA002038BD10B50C46134600212246B3
:1053B80000F031FA002010BD08B500210423C0F820
:1053C800F4310A460B4600F01FFA002008BD08B564
:1053D80000210523C0F8F4310A460B4600F01BFAF9
:1053E800002008BDD0F818321BB10020C3F8140201
:1053F800704702207047D0F81C3210B5D0F8184218
:105408005BB194F80002FF2807D09B6894F801224A
:1054180021469847FF2384F80032002010BD000081
:10542800432303800048704718000020432303806B
:1054380000487047E4000020432303800048704779
:10544800A00000200A230380004870479400002031
:1054580038B50546D0F8184200F0E4F9D5F8183206
:10546800C4F80C024BB1D5F81C32D4F80402DB683E
:1054780004F503719847002038BD022038BDF8B5FF
:105488000C460978D0F8185201F06003202B064624
:1054980020D1E2886378BAB109060BD5D0F81C127E
:1054A80018468F682946B84730462946E288FFF7EC
:1054B80053FF0FE085F80032E38885F8013229466A
:1054C800E288FFF760FF05E0D0F81C1218468C68E8
:1054D8001146A0470020F8BD10B58121044600F010
:1054E80064F90121204600F060F92046822100F08D
:1054F8005CF9D4F8183253B1D4F81C325B68984779
:10550800D4F8180200F098F90023C4F818320020E3
:1055180010BDF8B5037C0446812102224BB94FF433
:10552800007300F038F92046012102224FF400737D
:1055380006E0402300F02FF92046012102224023F3
:1055480000F029F9822103220823204600F023F9DC
:105558004FF4077000F06CF90546C4F81802C8B19A
:10556800D4F81C321B689847277CD5F804220026FB
:10557800C5F814622046C5F8186201212FB94FF406
:10558800007300F048F93846F8BD402300F043F9AD
:105598003046F8BD0120F8BD19B1C0F81C12002032
:1055A800704702207047D0F818320020C3F808125C
:1055B800C3F810227047D0F818320020C3F804123C
:1055C800704738B5D0F8184274B1D4F814526DB990
:1055D800B4F81032D4F80822812100F015F901231B
:1055E800C4F81432284638BD022038BD012038BD21
:1055F800D0F8183210B563B1047CD3F80422012125
:1056080014B94FF4007300E0402300F004F90020BF
:1056180010BD022010BD00002DE9F041244C636943
:1056280043F400336361636986B043F480236361A4
:105638004FF4C056112300254FF003080E2701A987
:105648004FF09040029301960395CDF8108005978E
:10565800FDF7AAFC31462A464FF09040FDF762FD5F
:105668000120FDF72DFC314601224FF09040FDF757
:1056780059FD022301A94FF090400293019603952A
:10568800CDF810800597FDF78FFCE36943F400031C
:10569800E361A36943F00103A36105212A461420AD
:1056A800FDF72EFC1420FDF75DFC06B0BDE8F08187
:1056B80000100240014601F5A271D0F87401FFF70D
:1056C800C0BB1C2303FB0103D0F87401D3F8C4202A
:1056D800FFF7E4BB1C2303FB0103D0F874019A6BAA
:1056E800FFF70CBCD0F87401FFF76FBC10B5044687
:1056F8000121D0F87401FFF765FCD4F87401BDE806
:105708001040FFF740BC70477047000038B51C4A8E
:1057180005461C480823002480E80C00C5F8200230
:105728000222C46002618260C0F87451FDF703FD73
:1057380021462246D5F820024023FEF7DEFB8021D1
:1057480022460B46D5F82002FEF7D7FB2246D5F8AD
:1057580020028121C023FEF7D0FB2246D5F8200283
:1057680001214FF48873FEF7C8FBD5F82002822187
:1057780022464FF48073FEF7C0FB204638BD00BFB9
:10578800005C0040483C002008B5D0F82002FDF736
:1057980018FD002008BD10B51446D0F820021A469E
:1057A8002346FDF72AFD002010BD08B5D0F82002D9
:1057B800FDF7C6FE002008BD08B5D0F82002FEF7A8
:1057C800E7FA002008BD08B5D0F82002FEF731FB43
:1057D800002008BD11F0800FD0F820324FF01C02D5
:1057E80006D001F07F0102FB013393F82A007047CD
:1057F80002FB013191F8B600704708B5D0F82002D5
:10580800FDF7E5FC002008BD08B5D0F82002FDF73B
:10581800E2FF002008BD08B5D0F82002FDF76BFFB5
:10582800002008BD08B5D0F82002FDF7CCFF08BD60
:1058380000487047F80B00207047000012230B80C7
:10584800004870471DB9010804230B8000487047C1
:10585800CCB8010810B50131002393420DD0040FD4
:10586800092C94BF3034373401F8014C013300243B
:10587800000101F8024BDBB2EFE710BD1A2310B5A7
:105888000B80094B93E8140008331B68D01808D024
:1058980006490822FFF7DEFF204605490422FFF7E4
:1058A800D9FF044810BD00BFACF7FF1F4601002018
:1058B800560100204401002010B5044C04480A4653
:1058C8002146FFF72BFD204610BD00BFC03D00203C
:1058D800D0B8010810B5044C04480A462146FFF721
:1058E8001DFD204610BD00BFC03D0020F1B80108D5
:1058F80010B5044C04480A462146FFF70FFD204620
:1059080010BD00BFC03D002004B9010810B5044C0B
:1059180004480A462146FFF701FD204610BD00BF96
:10592800C03D00200FB901080020704708B50B469C
:105938000246114600201A68FCF738FB0248FFF7B8
:1059480057FE002008BD00BF203A002008B50349D3
:105958000348FFF730FE002008BD00BF303F00209D
:10596800203A0020202812D0212822D1124B1A6870
:105978000A701A68120A4A705A888A70DA78CA70E5
:105988001A790A715A794A719B798B7111E08A7870
:105998004878094B120442EA002208780243C87882
:1059A80042EA00621A600A791A714A795A718A7948
:1059B8009A710020704700BF6001002010B51C4C90
:1059C80086B02046FEF7E7FF00282ED1194BA060CD
:1059D80023601823E3610723E3624FF4E063E36085
:1059E8004FF40073A3614FF482736360124B6061DC
:1059F8002061A062206260629A6942F480529A61D2
:105A08005A6942F400325A61E02301930223029357
:105A18000323039004934FF09040052301A90593B5
:105A2800FDF7C2FA2046FEF70AFE06B010BD00BF19
:105A3800280E002000300140001002407FB50023EE
:105A48008DF817300B4B8DF80F001B680A48009330
:105A58000DF10F010DF117020123FEF75AFE20B1D7
:105A68000548FEF73FFEFFF7A9FF9DF8170007B0AE
:105A78005DF804FB78010020280E002030B5164C94
:105A880087B02046FEF724FD18BB144B144D236045
:105A98003223A360012320616061E0612062E3603A
:105AA8006B69104843F480236B61C0230193022380
:105AB800029303930323049304230DEB030105933B
:105AC800FDF772FAEB6943F40013EB612046FEF729
